{
	"docs.chain.link/samples/Keepers/KeepersCounter.sol": {
		"Counter": {
			"abi": [
				{
					"inputs": [
						{
							"internalType": "uint256",
							"name": "updateInterval",
							"type": "uint256"
						}
					],
					"stateMutability": "nonpayable",
					"type": "constructor"
				},
				{
					"inputs": [
						{
							"internalType": "bytes",
							"name": "",
							"type": "bytes"
						}
					],
					"name": "checkUpkeep",
					"outputs": [
						{
							"internalType": "bool",
							"name": "upkeepNeeded",
							"type": "bool"
						},
						{
							"internalType": "bytes",
							"name": "",
							"type": "bytes"
						}
					],
					"stateMutability": "view",
					"type": "function"
				},
				{
					"inputs": [],
					"name": "counter",
					"outputs": [
						{
							"internalType": "uint256",
							"name": "",
							"type": "uint256"
						}
					],
					"stateMutability": "view",
					"type": "function"
				},
				{
					"inputs": [],
					"name": "interval",
					"outputs": [
						{
							"internalType": "uint256",
							"name": "",
							"type": "uint256"
						}
					],
					"stateMutability": "view",
					"type": "function"
				},
				{
					"inputs": [],
					"name": "lastTimeStamp",
					"outputs": [
						{
							"internalType": "uint256",
							"name": "",
							"type": "uint256"
						}
					],
					"stateMutability": "view",
					"type": "function"
				},
				{
					"inputs": [
						{
							"internalType": "bytes",
							"name": "",
							"type": "bytes"
						}
					],
					"name": "performUpkeep",
					"outputs": [],
					"stateMutability": "nonpayable",
					"type": "function"
				}
			],
			"devdoc": {
				"kind": "dev",
				"methods": {},
				"version": 1
			},
			"evm": {
				"assembly": "    /* \"docs.chain.link/samples/Keepers/KeepersCounter.sol\":419:1625  contract Counter is KeeperCompatibleInterface {... */\n  mstore(0x40, 0xa0)\n    /* \"docs.chain.link/samples/Keepers/KeepersCounter.sol\":702:834  constructor(uint updateInterval) {... */\n  callvalue\n  dup1\n  iszero\n  tag_1\n  jumpi\n  0x00\n  dup1\n  revert\ntag_1:\n  pop\n  mload(0x40)\n  sub(codesize, bytecodeSize)\n  dup1\n  bytecodeSize\n  dup4\n  codecopy\n  dup2\n  dup2\n  add\n  0x40\n  mstore\n  dup2\n  add\n  swap1\n  tag_2\n  swap2\n  swap1\n  tag_3\n  jump\t// in\ntag_2:\n    /* \"docs.chain.link/samples/Keepers/KeepersCounter.sol\":754:768  updateInterval */\n  dup1\n    /* \"docs.chain.link/samples/Keepers/KeepersCounter.sol\":743:768  interval = updateInterval */\n  0x80\n  dup2\n  dup2\n  mstore\n  pop\n  pop\n    /* \"docs.chain.link/samples/Keepers/KeepersCounter.sol\":792:807  block.timestamp */\n  timestamp\n    /* \"docs.chain.link/samples/Keepers/KeepersCounter.sol\":776:789  lastTimeStamp */\n  0x01\n    /* \"docs.chain.link/samples/Keepers/KeepersCounter.sol\":776:807  lastTimeStamp = block.timestamp */\n  dup2\n  swap1\n  sstore\n  pop\n    /* \"docs.chain.link/samples/Keepers/KeepersCounter.sol\":826:827  0 */\n  0x00\n    /* \"docs.chain.link/samples/Keepers/KeepersCounter.sol\":816:823  counter */\n  dup1\n    /* \"docs.chain.link/samples/Keepers/KeepersCounter.sol\":816:827  counter = 0 */\n  dup2\n  swap1\n  sstore\n  pop\n    /* \"docs.chain.link/samples/Keepers/KeepersCounter.sol\":702:834  constructor(uint updateInterval) {... */\n  pop\n    /* \"docs.chain.link/samples/Keepers/KeepersCounter.sol\":419:1625  contract Counter is KeeperCompatibleInterface {... */\n  jump(tag_6)\n    /* \"#utility.yul\":7:150   */\ntag_8:\n    /* \"#utility.yul\":64:69   */\n  0x00\n    /* \"#utility.yul\":95:101   */\n  dup2\n    /* \"#utility.yul\":89:102   */\n  mload\n    /* \"#utility.yul\":80:102   */\n  swap1\n  pop\n    /* \"#utility.yul\":111:144   */\n  tag_10\n    /* \"#utility.yul\":138:143   */\n  dup2\n    /* \"#utility.yul\":111:144   */\n  tag_11\n  jump\t// in\ntag_10:\n    /* \"#utility.yul\":7:150   */\n  swap3\n  swap2\n  pop\n  pop\n  jump\t// out\n    /* \"#utility.yul\":156:507   */\ntag_3:\n    /* \"#utility.yul\":226:232   */\n  0x00\n    /* \"#utility.yul\":275:277   */\n  0x20\n    /* \"#utility.yul\":263:272   */\n  dup3\n    /* \"#utility.yul\":254:261   */\n  dup5\n    /* \"#utility.yul\":250:273   */\n  sub\n    /* \"#utility.yul\":246:278   */\n  slt\n    /* \"#utility.yul\":243:362   */\n  iszero\n  tag_13\n  jumpi\n    /* \"#utility.yul\":281:360   */\n  tag_14\n  tag_15\n  jump\t// in\ntag_14:\n    /* \"#utility.yul\":243:362   */\ntag_13:\n    /* \"#utility.yul\":401:402   */\n  0x00\n    /* \"#utility.yul\":426:490   */\n  tag_16\n    /* \"#utility.yul\":482:489   */\n  dup5\n    /* \"#utility.yul\":473:479   */\n  dup3\n    /* \"#utility.yul\":462:471   */\n  dup6\n    /* \"#utility.yul\":458:480   */\n  add\n    /* \"#utility.yul\":426:490   */\n  tag_8\n  jump\t// in\ntag_16:\n    /* \"#utility.yul\":416:490   */\n  swap2\n  pop\n    /* \"#utility.yul\":372:500   */\n  pop\n    /* \"#utility.yul\":156:507   */\n  swap3\n  swap2\n  pop\n  pop\n  jump\t// out\n    /* \"#utility.yul\":594:671   */\ntag_19:\n    /* \"#utility.yul\":631:638   */\n  0x00\n    /* \"#utility.yul\":660:665   */\n  dup2\n    /* \"#utility.yul\":649:665   */\n  swap1\n  pop\n    /* \"#utility.yul\":594:671   */\n  swap2\n  swap1\n  pop\n  jump\t// out\n    /* \"#utility.yul\":800:917   */\ntag_15:\n    /* \"#utility.yul\":909:910   */\n  0x00\n    /* \"#utility.yul\":906:907   */\n  dup1\n    /* \"#utility.yul\":899:911   */\n  revert\n    /* \"#utility.yul\":923:1045   */\ntag_11:\n    /* \"#utility.yul\":996:1020   */\n  tag_25\n    /* \"#utility.yul\":1014:1019   */\n  dup2\n    /* \"#utility.yul\":996:1020   */\n  tag_19\n  jump\t// in\ntag_25:\n    /* \"#utility.yul\":989:994   */\n  dup2\n    /* \"#utility.yul\":986:1021   */\n  eq\n    /* \"#utility.yul\":976:1039   */\n  tag_26\n  jumpi\n    /* \"#utility.yul\":1035:1036   */\n  0x00\n    /* \"#utility.yul\":1032:1033   */\n  dup1\n    /* \"#utility.yul\":1025:1037   */\n  revert\n    /* \"#utility.yul\":976:1039   */\ntag_26:\n    /* \"#utility.yul\":923:1045   */\n  pop\n  jump\t// out\n    /* \"docs.chain.link/samples/Keepers/KeepersCounter.sol\":419:1625  contract Counter is KeeperCompatibleInterface {... */\ntag_6:\n  mload(0x80)\n  codecopy(0x00, dataOffset(sub_0), dataSize(sub_0))\n  0x00\n  assignImmutable(\"0xdb37925934a3d3177db64e11f5e0156ceb8a756fee58ded16e549afa607ddb1d\")\n  return(0x00, dataSize(sub_0))\nstop\n\nsub_0: assembly {\n        /* \"docs.chain.link/samples/Keepers/KeepersCounter.sol\":419:1625  contract Counter is KeeperCompatibleInterface {... */\n      mstore(0x40, 0x80)\n      callvalue\n      dup1\n      iszero\n      tag_1\n      jumpi\n      0x00\n      dup1\n      revert\n    tag_1:\n      pop\n      jumpi(tag_2, lt(calldatasize, 0x04))\n      shr(0xe0, calldataload(0x00))\n      dup1\n      0x3f3b3b27\n      eq\n      tag_3\n      jumpi\n      dup1\n      0x4585e33b\n      eq\n      tag_4\n      jumpi\n      dup1\n      0x61bc221a\n      eq\n      tag_5\n      jumpi\n      dup1\n      0x6e04ff0d\n      eq\n      tag_6\n      jumpi\n      dup1\n      0x947a36fb\n      eq\n      tag_7\n      jumpi\n    tag_2:\n      0x00\n      dup1\n      revert\n        /* \"docs.chain.link/samples/Keepers/KeepersCounter.sol\":670:695  uint public lastTimeStamp */\n    tag_3:\n      tag_8\n      tag_9\n      jump\t// in\n    tag_8:\n      mload(0x40)\n      tag_10\n      swap2\n      swap1\n      tag_11\n      jump\t// in\n    tag_10:\n      mload(0x40)\n      dup1\n      swap2\n      sub\n      swap1\n      return\n        /* \"docs.chain.link/samples/Keepers/KeepersCounter.sol\":1170:1623  function performUpkeep(bytes calldata /* performData */) external override {... */\n    tag_4:\n      tag_12\n      0x04\n      dup1\n      calldatasize\n      sub\n      dup2\n      add\n      swap1\n      tag_13\n      swap2\n      swap1\n      tag_14\n      jump\t// in\n    tag_13:\n      tag_15\n      jump\t// in\n    tag_12:\n      stop\n        /* \"docs.chain.link/samples/Keepers/KeepersCounter.sol\":516:535  uint public counter */\n    tag_5:\n      tag_16\n      tag_17\n      jump\t// in\n    tag_16:\n      mload(0x40)\n      tag_18\n      swap2\n      swap1\n      tag_11\n      jump\t// in\n    tag_18:\n      mload(0x40)\n      dup1\n      swap2\n      sub\n      swap1\n      return\n        /* \"docs.chain.link/samples/Keepers/KeepersCounter.sol\":840:1164  function checkUpkeep(bytes calldata /* checkData */) external view override returns (bool upkeepNeeded, bytes memory /* performData */) {... */\n    tag_6:\n      tag_19\n      0x04\n      dup1\n      calldatasize\n      sub\n      dup2\n      add\n      swap1\n      tag_20\n      swap2\n      swap1\n      tag_14\n      jump\t// in\n    tag_20:\n      tag_21\n      jump\t// in\n    tag_19:\n      mload(0x40)\n      tag_22\n      swap3\n      swap2\n      swap1\n      tag_23\n      jump\t// in\n    tag_22:\n      mload(0x40)\n      dup1\n      swap2\n      sub\n      swap1\n      return\n        /* \"docs.chain.link/samples/Keepers/KeepersCounter.sol\":634:664  uint public immutable interval */\n    tag_7:\n      tag_24\n      tag_25\n      jump\t// in\n    tag_24:\n      mload(0x40)\n      tag_26\n      swap2\n      swap1\n      tag_11\n      jump\t// in\n    tag_26:\n      mload(0x40)\n      dup1\n      swap2\n      sub\n      swap1\n      return\n        /* \"docs.chain.link/samples/Keepers/KeepersCounter.sol\":670:695  uint public lastTimeStamp */\n    tag_9:\n      sload(0x01)\n      dup2\n      jump\t// out\n        /* \"docs.chain.link/samples/Keepers/KeepersCounter.sol\":1170:1623  function performUpkeep(bytes calldata /* performData */) external override {... */\n    tag_15:\n        /* \"docs.chain.link/samples/Keepers/KeepersCounter.sol\":1379:1387  interval */\n      immutable(\"0xdb37925934a3d3177db64e11f5e0156ceb8a756fee58ded16e549afa607ddb1d\")\n        /* \"docs.chain.link/samples/Keepers/KeepersCounter.sol\":1362:1375  lastTimeStamp */\n      sload(0x01)\n        /* \"docs.chain.link/samples/Keepers/KeepersCounter.sol\":1344:1359  block.timestamp */\n      timestamp\n        /* \"docs.chain.link/samples/Keepers/KeepersCounter.sol\":1344:1375  block.timestamp - lastTimeStamp */\n      tag_28\n      swap2\n      swap1\n      tag_29\n      jump\t// in\n    tag_28:\n        /* \"docs.chain.link/samples/Keepers/KeepersCounter.sol\":1343:1387  (block.timestamp - lastTimeStamp) > interval */\n      gt\n        /* \"docs.chain.link/samples/Keepers/KeepersCounter.sol\":1339:1481  if ((block.timestamp - lastTimeStamp) > interval ) {... */\n      iszero\n      tag_30\n      jumpi\n        /* \"docs.chain.link/samples/Keepers/KeepersCounter.sol\":1420:1435  block.timestamp */\n      timestamp\n        /* \"docs.chain.link/samples/Keepers/KeepersCounter.sol\":1404:1417  lastTimeStamp */\n      0x01\n        /* \"docs.chain.link/samples/Keepers/KeepersCounter.sol\":1404:1435  lastTimeStamp = block.timestamp */\n      dup2\n      swap1\n      sstore\n      pop\n        /* \"docs.chain.link/samples/Keepers/KeepersCounter.sol\":1469:1470  1 */\n      0x01\n        /* \"docs.chain.link/samples/Keepers/KeepersCounter.sol\":1459:1466  counter */\n      sload(0x00)\n        /* \"docs.chain.link/samples/Keepers/KeepersCounter.sol\":1459:1470  counter + 1 */\n      tag_31\n      swap2\n      swap1\n      tag_32\n      jump\t// in\n    tag_31:\n        /* \"docs.chain.link/samples/Keepers/KeepersCounter.sol\":1449:1456  counter */\n      0x00\n        /* \"docs.chain.link/samples/Keepers/KeepersCounter.sol\":1449:1470  counter = counter + 1 */\n      dup2\n      swap1\n      sstore\n      pop\n        /* \"docs.chain.link/samples/Keepers/KeepersCounter.sol\":1339:1481  if ((block.timestamp - lastTimeStamp) > interval ) {... */\n    tag_30:\n        /* \"docs.chain.link/samples/Keepers/KeepersCounter.sol\":1170:1623  function performUpkeep(bytes calldata /* performData */) external override {... */\n      pop\n      pop\n      jump\t// out\n        /* \"docs.chain.link/samples/Keepers/KeepersCounter.sol\":516:535  uint public counter */\n    tag_17:\n      sload(0x00)\n      dup2\n      jump\t// out\n        /* \"docs.chain.link/samples/Keepers/KeepersCounter.sol\":840:1164  function checkUpkeep(bytes calldata /* checkData */) external view override returns (bool upkeepNeeded, bytes memory /* performData */) {... */\n    tag_21:\n        /* \"docs.chain.link/samples/Keepers/KeepersCounter.sol\":925:942  bool upkeepNeeded */\n      0x00\n        /* \"docs.chain.link/samples/Keepers/KeepersCounter.sol\":944:956  bytes memory */\n      0x60\n        /* \"docs.chain.link/samples/Keepers/KeepersCounter.sol\":1037:1045  interval */\n      immutable(\"0xdb37925934a3d3177db64e11f5e0156ceb8a756fee58ded16e549afa607ddb1d\")\n        /* \"docs.chain.link/samples/Keepers/KeepersCounter.sol\":1020:1033  lastTimeStamp */\n      sload(0x01)\n        /* \"docs.chain.link/samples/Keepers/KeepersCounter.sol\":1002:1017  block.timestamp */\n      timestamp\n        /* \"docs.chain.link/samples/Keepers/KeepersCounter.sol\":1002:1033  block.timestamp - lastTimeStamp */\n      tag_34\n      swap2\n      swap1\n      tag_29\n      jump\t// in\n    tag_34:\n        /* \"docs.chain.link/samples/Keepers/KeepersCounter.sol\":1001:1045  (block.timestamp - lastTimeStamp) > interval */\n      gt\n        /* \"docs.chain.link/samples/Keepers/KeepersCounter.sol\":986:1045  upkeepNeeded = (block.timestamp - lastTimeStamp) > interval */\n      swap2\n      pop\n        /* \"docs.chain.link/samples/Keepers/KeepersCounter.sol\":840:1164  function checkUpkeep(bytes calldata /* checkData */) external view override returns (bool upkeepNeeded, bytes memory /* performData */) {... */\n      swap3\n      pop\n      swap3\n      swap1\n      pop\n      jump\t// out\n        /* \"docs.chain.link/samples/Keepers/KeepersCounter.sol\":634:664  uint public immutable interval */\n    tag_25:\n      immutable(\"0xdb37925934a3d3177db64e11f5e0156ceb8a756fee58ded16e549afa607ddb1d\")\n      dup2\n      jump\t// out\n        /* \"#utility.yul\":20:572   */\n    tag_36:\n        /* \"#utility.yul\":77:85   */\n      0x00\n        /* \"#utility.yul\":87:93   */\n      dup1\n        /* \"#utility.yul\":137:140   */\n      dup4\n        /* \"#utility.yul\":130:134   */\n      0x1f\n        /* \"#utility.yul\":122:128   */\n      dup5\n        /* \"#utility.yul\":118:135   */\n      add\n        /* \"#utility.yul\":114:141   */\n      slt\n        /* \"#utility.yul\":104:226   */\n      tag_38\n      jumpi\n        /* \"#utility.yul\":145:224   */\n      tag_39\n      tag_40\n      jump\t// in\n    tag_39:\n        /* \"#utility.yul\":104:226   */\n    tag_38:\n        /* \"#utility.yul\":258:264   */\n      dup3\n        /* \"#utility.yul\":245:265   */\n      calldataload\n        /* \"#utility.yul\":235:265   */\n      swap1\n      pop\n        /* \"#utility.yul\":288:306   */\n      0xffffffffffffffff\n        /* \"#utility.yul\":280:286   */\n      dup2\n        /* \"#utility.yul\":277:307   */\n      gt\n        /* \"#utility.yul\":274:391   */\n      iszero\n      tag_41\n      jumpi\n        /* \"#utility.yul\":310:389   */\n      tag_42\n      tag_43\n      jump\t// in\n    tag_42:\n        /* \"#utility.yul\":274:391   */\n    tag_41:\n        /* \"#utility.yul\":424:428   */\n      0x20\n        /* \"#utility.yul\":416:422   */\n      dup4\n        /* \"#utility.yul\":412:429   */\n      add\n        /* \"#utility.yul\":400:429   */\n      swap2\n      pop\n        /* \"#utility.yul\":478:481   */\n      dup4\n        /* \"#utility.yul\":470:474   */\n      0x01\n        /* \"#utility.yul\":462:468   */\n      dup3\n        /* \"#utility.yul\":458:475   */\n      mul\n        /* \"#utility.yul\":448:456   */\n      dup4\n        /* \"#utility.yul\":444:476   */\n      add\n        /* \"#utility.yul\":441:482   */\n      gt\n        /* \"#utility.yul\":438:566   */\n      iszero\n      tag_44\n      jumpi\n        /* \"#utility.yul\":485:564   */\n      tag_45\n      tag_46\n      jump\t// in\n    tag_45:\n        /* \"#utility.yul\":438:566   */\n    tag_44:\n        /* \"#utility.yul\":20:572   */\n      swap3\n      pop\n      swap3\n      swap1\n      pop\n      jump\t// out\n        /* \"#utility.yul\":578:1105   */\n    tag_14:\n        /* \"#utility.yul\":648:654   */\n      0x00\n        /* \"#utility.yul\":656:662   */\n      dup1\n        /* \"#utility.yul\":705:707   */\n      0x20\n        /* \"#utility.yul\":693:702   */\n      dup4\n        /* \"#utility.yul\":684:691   */\n      dup6\n        /* \"#utility.yul\":680:703   */\n      sub\n        /* \"#utility.yul\":676:708   */\n      slt\n        /* \"#utility.yul\":673:792   */\n      iszero\n      tag_48\n      jumpi\n        /* \"#utility.yul\":711:790   */\n      tag_49\n      tag_50\n      jump\t// in\n    tag_49:\n        /* \"#utility.yul\":673:792   */\n    tag_48:\n        /* \"#utility.yul\":859:860   */\n      0x00\n        /* \"#utility.yul\":848:857   */\n      dup4\n        /* \"#utility.yul\":844:861   */\n      add\n        /* \"#utility.yul\":831:862   */\n      calldataload\n        /* \"#utility.yul\":889:907   */\n      0xffffffffffffffff\n        /* \"#utility.yul\":881:887   */\n      dup2\n        /* \"#utility.yul\":878:908   */\n      gt\n        /* \"#utility.yul\":875:992   */\n      iszero\n      tag_51\n      jumpi\n        /* \"#utility.yul\":911:990   */\n      tag_52\n      tag_53\n      jump\t// in\n    tag_52:\n        /* \"#utility.yul\":875:992   */\n    tag_51:\n        /* \"#utility.yul\":1024:1088   */\n      tag_54\n        /* \"#utility.yul\":1080:1087   */\n      dup6\n        /* \"#utility.yul\":1071:1077   */\n      dup3\n        /* \"#utility.yul\":1060:1069   */\n      dup7\n        /* \"#utility.yul\":1056:1078   */\n      add\n        /* \"#utility.yul\":1024:1088   */\n      tag_36\n      jump\t// in\n    tag_54:\n        /* \"#utility.yul\":1006:1088   */\n      swap3\n      pop\n      swap3\n      pop\n        /* \"#utility.yul\":802:1098   */\n      pop\n        /* \"#utility.yul\":578:1105   */\n      swap3\n      pop\n      swap3\n      swap1\n      pop\n      jump\t// out\n        /* \"#utility.yul\":1111:1220   */\n    tag_55:\n        /* \"#utility.yul\":1192:1213   */\n      tag_57\n        /* \"#utility.yul\":1207:1212   */\n      dup2\n        /* \"#utility.yul\":1192:1213   */\n      tag_58\n      jump\t// in\n    tag_57:\n        /* \"#utility.yul\":1187:1190   */\n      dup3\n        /* \"#utility.yul\":1180:1214   */\n      mstore\n        /* \"#utility.yul\":1111:1220   */\n      pop\n      pop\n      jump\t// out\n        /* \"#utility.yul\":1226:1586   */\n    tag_59:\n        /* \"#utility.yul\":1312:1315   */\n      0x00\n        /* \"#utility.yul\":1340:1378   */\n      tag_61\n        /* \"#utility.yul\":1372:1377   */\n      dup3\n        /* \"#utility.yul\":1340:1378   */\n      tag_62\n      jump\t// in\n    tag_61:\n        /* \"#utility.yul\":1394:1464   */\n      tag_63\n        /* \"#utility.yul\":1457:1463   */\n      dup2\n        /* \"#utility.yul\":1452:1455   */\n      dup6\n        /* \"#utility.yul\":1394:1464   */\n      tag_64\n      jump\t// in\n    tag_63:\n        /* \"#utility.yul\":1387:1464   */\n      swap4\n      pop\n        /* \"#utility.yul\":1473:1525   */\n      tag_65\n        /* \"#utility.yul\":1518:1524   */\n      dup2\n        /* \"#utility.yul\":1513:1516   */\n      dup6\n        /* \"#utility.yul\":1506:1510   */\n      0x20\n        /* \"#utility.yul\":1499:1504   */\n      dup7\n        /* \"#utility.yul\":1495:1511   */\n      add\n        /* \"#utility.yul\":1473:1525   */\n      tag_66\n      jump\t// in\n    tag_65:\n        /* \"#utility.yul\":1550:1579   */\n      tag_67\n        /* \"#utility.yul\":1572:1578   */\n      dup2\n        /* \"#utility.yul\":1550:1579   */\n      tag_68\n      jump\t// in\n    tag_67:\n        /* \"#utility.yul\":1545:1548   */\n      dup5\n        /* \"#utility.yul\":1541:1580   */\n      add\n        /* \"#utility.yul\":1534:1580   */\n      swap2\n      pop\n        /* \"#utility.yul\":1316:1586   */\n      pop\n        /* \"#utility.yul\":1226:1586   */\n      swap3\n      swap2\n      pop\n      pop\n      jump\t// out\n        /* \"#utility.yul\":1592:1710   */\n    tag_69:\n        /* \"#utility.yul\":1679:1703   */\n      tag_71\n        /* \"#utility.yul\":1697:1702   */\n      dup2\n        /* \"#utility.yul\":1679:1703   */\n      tag_72\n      jump\t// in\n    tag_71:\n        /* \"#utility.yul\":1674:1677   */\n      dup3\n        /* \"#utility.yul\":1667:1704   */\n      mstore\n        /* \"#utility.yul\":1592:1710   */\n      pop\n      pop\n      jump\t// out\n        /* \"#utility.yul\":1716:2123   */\n    tag_23:\n        /* \"#utility.yul\":1849:1853   */\n      0x00\n        /* \"#utility.yul\":1887:1889   */\n      0x40\n        /* \"#utility.yul\":1876:1885   */\n      dup3\n        /* \"#utility.yul\":1872:1890   */\n      add\n        /* \"#utility.yul\":1864:1890   */\n      swap1\n      pop\n        /* \"#utility.yul\":1900:1965   */\n      tag_74\n        /* \"#utility.yul\":1962:1963   */\n      0x00\n        /* \"#utility.yul\":1951:1960   */\n      dup4\n        /* \"#utility.yul\":1947:1964   */\n      add\n        /* \"#utility.yul\":1938:1944   */\n      dup6\n        /* \"#utility.yul\":1900:1965   */\n      tag_55\n      jump\t// in\n    tag_74:\n        /* \"#utility.yul\":2012:2021   */\n      dup2\n        /* \"#utility.yul\":2006:2010   */\n      dup2\n        /* \"#utility.yul\":2002:2022   */\n      sub\n        /* \"#utility.yul\":1997:1999   */\n      0x20\n        /* \"#utility.yul\":1986:1995   */\n      dup4\n        /* \"#utility.yul\":1982:2000   */\n      add\n        /* \"#utility.yul\":1975:2023   */\n      mstore\n        /* \"#utility.yul\":2040:2116   */\n      tag_75\n        /* \"#utility.yul\":2111:2115   */\n      dup2\n        /* \"#utility.yul\":2102:2108   */\n      dup5\n        /* \"#utility.yul\":2040:2116   */\n      tag_59\n      jump\t// in\n    tag_75:\n        /* \"#utility.yul\":2032:2116   */\n      swap1\n      pop\n        /* \"#utility.yul\":1716:2123   */\n      swap4\n      swap3\n      pop\n      pop\n      pop\n      jump\t// out\n        /* \"#utility.yul\":2129:2351   */\n    tag_11:\n        /* \"#utility.yul\":2222:2226   */\n      0x00\n        /* \"#utility.yul\":2260:2262   */\n      0x20\n        /* \"#utility.yul\":2249:2258   */\n      dup3\n        /* \"#utility.yul\":2245:2263   */\n      add\n        /* \"#utility.yul\":2237:2263   */\n      swap1\n      pop\n        /* \"#utility.yul\":2273:2344   */\n      tag_77\n        /* \"#utility.yul\":2341:2342   */\n      0x00\n        /* \"#utility.yul\":2330:2339   */\n      dup4\n        /* \"#utility.yul\":2326:2343   */\n      add\n        /* \"#utility.yul\":2317:2323   */\n      dup5\n        /* \"#utility.yul\":2273:2344   */\n      tag_69\n      jump\t// in\n    tag_77:\n        /* \"#utility.yul\":2129:2351   */\n      swap3\n      swap2\n      pop\n      pop\n      jump\t// out\n        /* \"#utility.yul\":2438:2536   */\n    tag_62:\n        /* \"#utility.yul\":2489:2495   */\n      0x00\n        /* \"#utility.yul\":2523:2528   */\n      dup2\n        /* \"#utility.yul\":2517:2529   */\n      mload\n        /* \"#utility.yul\":2507:2529   */\n      swap1\n      pop\n        /* \"#utility.yul\":2438:2536   */\n      swap2\n      swap1\n      pop\n      jump\t// out\n        /* \"#utility.yul\":2542:2710   */\n    tag_64:\n        /* \"#utility.yul\":2625:2636   */\n      0x00\n        /* \"#utility.yul\":2659:2665   */\n      dup3\n        /* \"#utility.yul\":2654:2657   */\n      dup3\n        /* \"#utility.yul\":2647:2666   */\n      mstore\n        /* \"#utility.yul\":2699:2703   */\n      0x20\n        /* \"#utility.yul\":2694:2697   */\n      dup3\n        /* \"#utility.yul\":2690:2704   */\n      add\n        /* \"#utility.yul\":2675:2704   */\n      swap1\n      pop\n        /* \"#utility.yul\":2542:2710   */\n      swap3\n      swap2\n      pop\n      pop\n      jump\t// out\n        /* \"#utility.yul\":2716:3021   */\n    tag_32:\n        /* \"#utility.yul\":2756:2759   */\n      0x00\n        /* \"#utility.yul\":2775:2795   */\n      tag_83\n        /* \"#utility.yul\":2793:2794   */\n      dup3\n        /* \"#utility.yul\":2775:2795   */\n      tag_72\n      jump\t// in\n    tag_83:\n        /* \"#utility.yul\":2770:2795   */\n      swap2\n      pop\n        /* \"#utility.yul\":2809:2829   */\n      tag_84\n        /* \"#utility.yul\":2827:2828   */\n      dup4\n        /* \"#utility.yul\":2809:2829   */\n      tag_72\n      jump\t// in\n    tag_84:\n        /* \"#utility.yul\":2804:2829   */\n      swap3\n      pop\n        /* \"#utility.yul\":2963:2964   */\n      dup3\n        /* \"#utility.yul\":2895:2961   */\n      0xffffffffffffffffffffffffffffffffffffffffffffffffffffffffffffffff\n        /* \"#utility.yul\":2891:2965   */\n      sub\n        /* \"#utility.yul\":2888:2889   */\n      dup3\n        /* \"#utility.yul\":2885:2966   */\n      gt\n        /* \"#utility.yul\":2882:2989   */\n      iszero\n      tag_85\n      jumpi\n        /* \"#utility.yul\":2969:2987   */\n      tag_86\n      tag_87\n      jump\t// in\n    tag_86:\n        /* \"#utility.yul\":2882:2989   */\n    tag_85:\n        /* \"#utility.yul\":3013:3014   */\n      dup3\n        /* \"#utility.yul\":3010:3011   */\n      dup3\n        /* \"#utility.yul\":3006:3015   */\n      add\n        /* \"#utility.yul\":2999:3015   */\n      swap1\n      pop\n        /* \"#utility.yul\":2716:3021   */\n      swap3\n      swap2\n      pop\n      pop\n      jump\t// out\n        /* \"#utility.yul\":3027:3218   */\n    tag_29:\n        /* \"#utility.yul\":3067:3071   */\n      0x00\n        /* \"#utility.yul\":3087:3107   */\n      tag_89\n        /* \"#utility.yul\":3105:3106   */\n      dup3\n        /* \"#utility.yul\":3087:3107   */\n      tag_72\n      jump\t// in\n    tag_89:\n        /* \"#utility.yul\":3082:3107   */\n      swap2\n      pop\n        /* \"#utility.yul\":3121:3141   */\n      tag_90\n        /* \"#utility.yul\":3139:3140   */\n      dup4\n        /* \"#utility.yul\":3121:3141   */\n      tag_72\n      jump\t// in\n    tag_90:\n        /* \"#utility.yul\":3116:3141   */\n      swap3\n      pop\n        /* \"#utility.yul\":3160:3161   */\n      dup3\n        /* \"#utility.yul\":3157:3158   */\n      dup3\n        /* \"#utility.yul\":3154:3162   */\n      lt\n        /* \"#utility.yul\":3151:3185   */\n      iszero\n      tag_91\n      jumpi\n        /* \"#utility.yul\":3165:3183   */\n      tag_92\n      tag_87\n      jump\t// in\n    tag_92:\n        /* \"#utility.yul\":3151:3185   */\n    tag_91:\n        /* \"#utility.yul\":3210:3211   */\n      dup3\n        /* \"#utility.yul\":3207:3208   */\n      dup3\n        /* \"#utility.yul\":3203:3212   */\n      sub\n        /* \"#utility.yul\":3195:3212   */\n      swap1\n      pop\n        /* \"#utility.yul\":3027:3218   */\n      swap3\n      swap2\n      pop\n      pop\n      jump\t// out\n        /* \"#utility.yul\":3224:3314   */\n    tag_58:\n        /* \"#utility.yul\":3258:3265   */\n      0x00\n        /* \"#utility.yul\":3301:3306   */\n      dup2\n        /* \"#utility.yul\":3294:3307   */\n      iszero\n        /* \"#utility.yul\":3287:3308   */\n      iszero\n        /* \"#utility.yul\":3276:3308   */\n      swap1\n      pop\n        /* \"#utility.yul\":3224:3314   */\n      swap2\n      swap1\n      pop\n      jump\t// out\n        /* \"#utility.yul\":3320:3397   */\n    tag_72:\n        /* \"#utility.yul\":3357:3364   */\n      0x00\n        /* \"#utility.yul\":3386:3391   */\n      dup2\n        /* \"#utility.yul\":3375:3391   */\n      swap1\n      pop\n        /* \"#utility.yul\":3320:3397   */\n      swap2\n      swap1\n      pop\n      jump\t// out\n        /* \"#utility.yul\":3403:3710   */\n    tag_66:\n        /* \"#utility.yul\":3471:3472   */\n      0x00\n        /* \"#utility.yul\":3481:3594   */\n    tag_96:\n        /* \"#utility.yul\":3495:3501   */\n      dup4\n        /* \"#utility.yul\":3492:3493   */\n      dup2\n        /* \"#utility.yul\":3489:3502   */\n      lt\n        /* \"#utility.yul\":3481:3594   */\n      iszero\n      tag_98\n      jumpi\n        /* \"#utility.yul\":3580:3581   */\n      dup1\n        /* \"#utility.yul\":3575:3578   */\n      dup3\n        /* \"#utility.yul\":3571:3582   */\n      add\n        /* \"#utility.yul\":3565:3583   */\n      mload\n        /* \"#utility.yul\":3561:3562   */\n      dup2\n        /* \"#utility.yul\":3556:3559   */\n      dup5\n        /* \"#utility.yul\":3552:3563   */\n      add\n        /* \"#utility.yul\":3545:3584   */\n      mstore\n        /* \"#utility.yul\":3517:3519   */\n      0x20\n        /* \"#utility.yul\":3514:3515   */\n      dup2\n        /* \"#utility.yul\":3510:3520   */\n      add\n        /* \"#utility.yul\":3505:3520   */\n      swap1\n      pop\n        /* \"#utility.yul\":3481:3594   */\n      jump(tag_96)\n    tag_98:\n        /* \"#utility.yul\":3612:3618   */\n      dup4\n        /* \"#utility.yul\":3609:3610   */\n      dup2\n        /* \"#utility.yul\":3606:3619   */\n      gt\n        /* \"#utility.yul\":3603:3704   */\n      iszero\n      tag_99\n      jumpi\n        /* \"#utility.yul\":3692:3693   */\n      0x00\n        /* \"#utility.yul\":3683:3689   */\n      dup5\n        /* \"#utility.yul\":3678:3681   */\n      dup5\n        /* \"#utility.yul\":3674:3690   */\n      add\n        /* \"#utility.yul\":3667:3694   */\n      mstore\n        /* \"#utility.yul\":3603:3704   */\n    tag_99:\n        /* \"#utility.yul\":3452:3710   */\n      pop\n        /* \"#utility.yul\":3403:3710   */\n      pop\n      pop\n      pop\n      jump\t// out\n        /* \"#utility.yul\":3716:3896   */\n    tag_87:\n        /* \"#utility.yul\":3764:3841   */\n      0x4e487b7100000000000000000000000000000000000000000000000000000000\n        /* \"#utility.yul\":3761:3762   */\n      0x00\n        /* \"#utility.yul\":3754:3842   */\n      mstore\n        /* \"#utility.yul\":3861:3865   */\n      0x11\n        /* \"#utility.yul\":3858:3859   */\n      0x04\n        /* \"#utility.yul\":3851:3866   */\n      mstore\n        /* \"#utility.yul\":3885:3889   */\n      0x24\n        /* \"#utility.yul\":3882:3883   */\n      0x00\n        /* \"#utility.yul\":3875:3890   */\n      revert\n        /* \"#utility.yul\":3902:4019   */\n    tag_43:\n        /* \"#utility.yul\":4011:4012   */\n      0x00\n        /* \"#utility.yul\":4008:4009   */\n      dup1\n        /* \"#utility.yul\":4001:4013   */\n      revert\n        /* \"#utility.yul\":4025:4142   */\n    tag_40:\n        /* \"#utility.yul\":4134:4135   */\n      0x00\n        /* \"#utility.yul\":4131:4132   */\n      dup1\n        /* \"#utility.yul\":4124:4136   */\n      revert\n        /* \"#utility.yul\":4148:4265   */\n    tag_46:\n        /* \"#utility.yul\":4257:4258   */\n      0x00\n        /* \"#utility.yul\":4254:4255   */\n      dup1\n        /* \"#utility.yul\":4247:4259   */\n      revert\n        /* \"#utility.yul\":4271:4388   */\n    tag_53:\n        /* \"#utility.yul\":4380:4381   */\n      0x00\n        /* \"#utility.yul\":4377:4378   */\n      dup1\n        /* \"#utility.yul\":4370:4382   */\n      revert\n        /* \"#utility.yul\":4394:4511   */\n    tag_50:\n        /* \"#utility.yul\":4503:4504   */\n      0x00\n        /* \"#utility.yul\":4500:4501   */\n      dup1\n        /* \"#utility.yul\":4493:4505   */\n      revert\n        /* \"#utility.yul\":4517:4619   */\n    tag_68:\n        /* \"#utility.yul\":4558:4564   */\n      0x00\n        /* \"#utility.yul\":4609:4611   */\n      0x1f\n        /* \"#utility.yul\":4605:4612   */\n      not\n        /* \"#utility.yul\":4600:4602   */\n      0x1f\n        /* \"#utility.yul\":4593:4598   */\n      dup4\n        /* \"#utility.yul\":4589:4603   */\n      add\n        /* \"#utility.yul\":4585:4613   */\n      and\n        /* \"#utility.yul\":4575:4613   */\n      swap1\n      pop\n        /* \"#utility.yul\":4517:4619   */\n      swap2\n      swap1\n      pop\n      jump\t// out\n\n    auxdata: 0xa2646970667358221220e7f3a7239e223ef28dca4e922a722cf01ec0cd95dfc7d2af8dcb1ffb51fb43b464736f6c63430008070033\n}\n",
				"bytecode": {
					"linkReferences": {},
					"object": "60a060405234801561001057600080fd5b5060405161056838038061056883398181016040528101906100329190610063565b80608081815250504260018190555060008081905550506100b6565b60008151905061005d8161009f565b92915050565b6000602082840312156100795761007861009a565b5b60006100878482850161004e565b91505092915050565b6000819050919050565b600080fd5b6100a881610090565b81146100b357600080fd5b50565b6080516104896100df6000396000818161010b0152818161016b01526101a401526104896000f3fe608060405234801561001057600080fd5b50600436106100575760003560e01c80633f3b3b271461005c5780634585e33b1461007a57806361bc221a146100965780636e04ff0d146100b4578063947a36fb146100e5575b600080fd5b610064610103565b60405161007191906102f0565b60405180910390f35b610094600480360381019061008f919061021c565b610109565b005b61009e61015f565b6040516100ab91906102f0565b60405180910390f35b6100ce60048036038101906100c9919061021c565b610165565b6040516100dc9291906102c0565b60405180910390f35b6100ed6101a2565b6040516100fa91906102f0565b60405180910390f35b60015481565b7f000000000000000000000000000000000000000000000000000000000000000060015442610138919061037d565b111561015b574260018190555060016000546101549190610327565b6000819055505b5050565b60005481565b600060607f000000000000000000000000000000000000000000000000000000000000000060015442610198919061037d565b1191509250929050565b7f000000000000000000000000000000000000000000000000000000000000000081565b60008083601f8401126101dc576101db61042e565b5b8235905067ffffffffffffffff8111156101f9576101f8610429565b5b60208301915083600182028301111561021557610214610433565b5b9250929050565b600080602083850312156102335761023261043d565b5b600083013567ffffffffffffffff81111561025157610250610438565b5b61025d858286016101c6565b92509250509250929050565b610272816103b1565b82525050565b60006102838261030b565b61028d8185610316565b935061029d8185602086016103c7565b6102a681610442565b840191505092915050565b6102ba816103bd565b82525050565b60006040820190506102d56000830185610269565b81810360208301526102e78184610278565b90509392505050565b600060208201905061030560008301846102b1565b92915050565b600081519050919050565b600082825260208201905092915050565b6000610332826103bd565b915061033d836103bd565b9250827fffffffffffffffffffffffffffffffffffffffffffffffffffffffffffffffff03821115610372576103716103fa565b5b828201905092915050565b6000610388826103bd565b9150610393836103bd565b9250828210156103a6576103a56103fa565b5b828203905092915050565b60008115159050919050565b6000819050919050565b60005b838110156103e55780820151818401526020810190506103ca565b838111156103f4576000848401525b50505050565b7f4e487b7100000000000000000000000000000000000000000000000000000000600052601160045260246000fd5b600080fd5b600080fd5b600080fd5b600080fd5b600080fd5b6000601f19601f830116905091905056fea2646970667358221220e7f3a7239e223ef28dca4e922a722cf01ec0cd95dfc7d2af8dcb1ffb51fb43b464736f6c63430008070033",
					"opcodes": "PUSH1 0xA0 PUSH1 0x40 MSTORE CALLVALUE DUP1 ISZERO PUSH2 0x10 JUMPI PUSH1 0x0 DUP1 REVERT JUMPDEST POP PUSH1 0x40 MLOAD PUSH2 0x568 CODESIZE SUB DUP1 PUSH2 0x568 DUP4 CODECOPY DUP2 DUP2 ADD PUSH1 0x40 MSTORE DUP2 ADD SWAP1 PUSH2 0x32 SWAP2 SWAP1 PUSH2 0x63 JUMP JUMPDEST DUP1 PUSH1 0x80 DUP2 DUP2 MSTORE POP POP TIMESTAMP PUSH1 0x1 DUP2 SWAP1 SSTORE POP PUSH1 0x0 DUP1 DUP2 SWAP1 SSTORE POP POP PUSH2 0xB6 JUMP JUMPDEST PUSH1 0x0 DUP2 MLOAD SWAP1 POP PUSH2 0x5D DUP2 PUSH2 0x9F JUMP JUMPDEST SWAP3 SWAP2 POP POP JUMP JUMPDEST PUSH1 0x0 PUSH1 0x20 DUP3 DUP5 SUB SLT ISZERO PUSH2 0x79 JUMPI PUSH2 0x78 PUSH2 0x9A JUMP JUMPDEST JUMPDEST PUSH1 0x0 PUSH2 0x87 DUP5 DUP3 DUP6 ADD PUSH2 0x4E JUMP JUMPDEST SWAP2 POP POP SWAP3 SWAP2 POP POP JUMP JUMPDEST PUSH1 0x0 DUP2 SWAP1 POP SWAP2 SWAP1 POP JUMP JUMPDEST PUSH1 0x0 DUP1 REVERT JUMPDEST PUSH2 0xA8 DUP2 PUSH2 0x90 JUMP JUMPDEST DUP2 EQ PUSH2 0xB3 JUMPI PUSH1 0x0 DUP1 REVERT JUMPDEST POP JUMP JUMPDEST PUSH1 0x80 MLOAD PUSH2 0x489 PUSH2 0xDF PUSH1 0x0 CODECOPY PUSH1 0x0 DUP2 DUP2 PUSH2 0x10B ADD MSTORE DUP2 DUP2 PUSH2 0x16B ADD MSTORE PUSH2 0x1A4 ADD MSTORE PUSH2 0x489 PUSH1 0x0 RETURN INVALID PUSH1 0x80 PUSH1 0x40 MSTORE CALLVALUE DUP1 ISZERO PUSH2 0x10 JUMPI PUSH1 0x0 DUP1 REVERT JUMPDEST POP PUSH1 0x4 CALLDATASIZE LT PUSH2 0x57 JUMPI PUSH1 0x0 CALLDATALOAD PUSH1 0xE0 SHR DUP1 PUSH4 0x3F3B3B27 EQ PUSH2 0x5C JUMPI DUP1 PUSH4 0x4585E33B EQ PUSH2 0x7A JUMPI DUP1 PUSH4 0x61BC221A EQ PUSH2 0x96 JUMPI DUP1 PUSH4 0x6E04FF0D EQ PUSH2 0xB4 JUMPI DUP1 PUSH4 0x947A36FB EQ PUSH2 0xE5 JUMPI JUMPDEST PUSH1 0x0 DUP1 REVERT JUMPDEST PUSH2 0x64 PUSH2 0x103 JUMP JUMPDEST PUSH1 0x40 MLOAD PUSH2 0x71 SWAP2 SWAP1 PUSH2 0x2F0 JUMP JUMPDEST PUSH1 0x40 MLOAD DUP1 SWAP2 SUB SWAP1 RETURN JUMPDEST PUSH2 0x94 PUSH1 0x4 DUP1 CALLDATASIZE SUB DUP2 ADD SWAP1 PUSH2 0x8F SWAP2 SWAP1 PUSH2 0x21C JUMP JUMPDEST PUSH2 0x109 JUMP JUMPDEST STOP JUMPDEST PUSH2 0x9E PUSH2 0x15F JUMP JUMPDEST PUSH1 0x40 MLOAD PUSH2 0xAB SWAP2 SWAP1 PUSH2 0x2F0 JUMP JUMPDEST PUSH1 0x40 MLOAD DUP1 SWAP2 SUB SWAP1 RETURN JUMPDEST PUSH2 0xCE PUSH1 0x4 DUP1 CALLDATASIZE SUB DUP2 ADD SWAP1 PUSH2 0xC9 SWAP2 SWAP1 PUSH2 0x21C JUMP JUMPDEST PUSH2 0x165 JUMP JUMPDEST PUSH1 0x40 MLOAD PUSH2 0xDC SWAP3 SWAP2 SWAP1 PUSH2 0x2C0 JUMP JUMPDEST PUSH1 0x40 MLOAD DUP1 SWAP2 SUB SWAP1 RETURN JUMPDEST PUSH2 0xED PUSH2 0x1A2 JUMP JUMPDEST PUSH1 0x40 MLOAD PUSH2 0xFA SWAP2 SWAP1 PUSH2 0x2F0 JUMP JUMPDEST PUSH1 0x40 MLOAD DUP1 SWAP2 SUB SWAP1 RETURN JUMPDEST PUSH1 0x1 SLOAD DUP2 JUMP JUMPDEST PUSH32 0x0 PUSH1 0x1 SLOAD TIMESTAMP PUSH2 0x138 SWAP2 SWAP1 PUSH2 0x37D JUMP JUMPDEST GT ISZERO PUSH2 0x15B JUMPI TIMESTAMP PUSH1 0x1 DUP2 SWAP1 SSTORE POP PUSH1 0x1 PUSH1 0x0 SLOAD PUSH2 0x154 SWAP2 SWAP1 PUSH2 0x327 JUMP JUMPDEST PUSH1 0x0 DUP2 SWAP1 SSTORE POP JUMPDEST POP POP JUMP JUMPDEST PUSH1 0x0 SLOAD DUP2 JUMP JUMPDEST PUSH1 0x0 PUSH1 0x60 PUSH32 0x0 PUSH1 0x1 SLOAD TIMESTAMP PUSH2 0x198 SWAP2 SWAP1 PUSH2 0x37D JUMP JUMPDEST GT SWAP2 POP SWAP3 POP SWAP3 SWAP1 POP JUMP JUMPDEST PUSH32 0x0 DUP2 JUMP JUMPDEST PUSH1 0x0 DUP1 DUP4 PUSH1 0x1F DUP5 ADD SLT PUSH2 0x1DC JUMPI PUSH2 0x1DB PUSH2 0x42E JUMP JUMPDEST JUMPDEST DUP3 CALLDATALOAD SWAP1 POP PUSH8 0xFFFFFFFFFFFFFFFF DUP2 GT ISZERO PUSH2 0x1F9 JUMPI PUSH2 0x1F8 PUSH2 0x429 JUMP JUMPDEST JUMPDEST PUSH1 0x20 DUP4 ADD SWAP2 POP DUP4 PUSH1 0x1 DUP3 MUL DUP4 ADD GT ISZERO PUSH2 0x215 JUMPI PUSH2 0x214 PUSH2 0x433 JUMP JUMPDEST JUMPDEST SWAP3 POP SWAP3 SWAP1 POP JUMP JUMPDEST PUSH1 0x0 DUP1 PUSH1 0x20 DUP4 DUP6 SUB SLT ISZERO PUSH2 0x233 JUMPI PUSH2 0x232 PUSH2 0x43D JUMP JUMPDEST JUMPDEST PUSH1 0x0 DUP4 ADD CALLDATALOAD PUSH8 0xFFFFFFFFFFFFFFFF DUP2 GT ISZERO PUSH2 0x251 JUMPI PUSH2 0x250 PUSH2 0x438 JUMP JUMPDEST JUMPDEST PUSH2 0x25D DUP6 DUP3 DUP7 ADD PUSH2 0x1C6 JUMP JUMPDEST SWAP3 POP SWAP3 POP POP SWAP3 POP SWAP3 SWAP1 POP JUMP JUMPDEST PUSH2 0x272 DUP2 PUSH2 0x3B1 JUMP JUMPDEST DUP3 MSTORE POP POP JUMP JUMPDEST PUSH1 0x0 PUSH2 0x283 DUP3 PUSH2 0x30B JUMP JUMPDEST PUSH2 0x28D DUP2 DUP6 PUSH2 0x316 JUMP JUMPDEST SWAP4 POP PUSH2 0x29D DUP2 DUP6 PUSH1 0x20 DUP7 ADD PUSH2 0x3C7 JUMP JUMPDEST PUSH2 0x2A6 DUP2 PUSH2 0x442 JUMP JUMPDEST DUP5 ADD SWAP2 POP POP SWAP3 SWAP2 POP POP JUMP JUMPDEST PUSH2 0x2BA DUP2 PUSH2 0x3BD JUMP JUMPDEST DUP3 MSTORE POP POP JUMP JUMPDEST PUSH1 0x0 PUSH1 0x40 DUP3 ADD SWAP1 POP PUSH2 0x2D5 PUSH1 0x0 DUP4 ADD DUP6 PUSH2 0x269 JUMP JUMPDEST DUP2 DUP2 SUB PUSH1 0x20 DUP4 ADD MSTORE PUSH2 0x2E7 DUP2 DUP5 PUSH2 0x278 JUMP JUMPDEST SWAP1 POP SWAP4 SWAP3 POP POP POP JUMP JUMPDEST PUSH1 0x0 PUSH1 0x20 DUP3 ADD SWAP1 POP PUSH2 0x305 PUSH1 0x0 DUP4 ADD DUP5 PUSH2 0x2B1 JUMP JUMPDEST SWAP3 SWAP2 POP POP JUMP JUMPDEST PUSH1 0x0 DUP2 MLOAD SWAP1 POP SWAP2 SWAP1 POP JUMP JUMPDEST PUSH1 0x0 DUP3 DUP3 MSTORE PUSH1 0x20 DUP3 ADD SWAP1 POP SWAP3 SWAP2 POP POP JUMP JUMPDEST PUSH1 0x0 PUSH2 0x332 DUP3 PUSH2 0x3BD JUMP JUMPDEST SWAP2 POP PUSH2 0x33D DUP4 PUSH2 0x3BD JUMP JUMPDEST SWAP3 POP DUP3 PUSH32 0xFFFFFFFFFFFFFFFFFFFFFFFFFFFFFFFFFFFFFFFFFFFFFFFFFFFFFFFFFFFFFFFF SUB DUP3 GT ISZERO PUSH2 0x372 JUMPI PUSH2 0x371 PUSH2 0x3FA JUMP JUMPDEST JUMPDEST DUP3 DUP3 ADD SWAP1 POP SWAP3 SWAP2 POP POP JUMP JUMPDEST PUSH1 0x0 PUSH2 0x388 DUP3 PUSH2 0x3BD JUMP JUMPDEST SWAP2 POP PUSH2 0x393 DUP4 PUSH2 0x3BD JUMP JUMPDEST SWAP3 POP DUP3 DUP3 LT ISZERO PUSH2 0x3A6 JUMPI PUSH2 0x3A5 PUSH2 0x3FA JUMP JUMPDEST JUMPDEST DUP3 DUP3 SUB SWAP1 POP SWAP3 SWAP2 POP POP JUMP JUMPDEST PUSH1 0x0 DUP2 ISZERO ISZERO SWAP1 POP SWAP2 SWAP1 POP JUMP JUMPDEST PUSH1 0x0 DUP2 SWAP1 POP SWAP2 SWAP1 POP JUMP JUMPDEST PUSH1 0x0 JUMPDEST DUP4 DUP2 LT ISZERO PUSH2 0x3E5 JUMPI DUP1 DUP3 ADD MLOAD DUP2 DUP5 ADD MSTORE PUSH1 0x20 DUP2 ADD SWAP1 POP PUSH2 0x3CA JUMP JUMPDEST DUP4 DUP2 GT ISZERO PUSH2 0x3F4 JUMPI PUSH1 0x0 DUP5 DUP5 ADD MSTORE JUMPDEST POP POP POP POP JUMP JUMPDEST PUSH32 0x4E487B7100000000000000000000000000000000000000000000000000000000 PUSH1 0x0 MSTORE PUSH1 0x11 PUSH1 0x4 MSTORE PUSH1 0x24 PUSH1 0x0 REVERT JUMPDEST PUSH1 0x0 DUP1 REVERT JUMPDEST PUSH1 0x0 DUP1 REVERT JUMPDEST PUSH1 0x0 DUP1 REVERT JUMPDEST PUSH1 0x0 DUP1 REVERT JUMPDEST PUSH1 0x0 DUP1 REVERT JUMPDEST PUSH1 0x0 PUSH1 0x1F NOT PUSH1 0x1F DUP4 ADD AND SWAP1 POP SWAP2 SWAP1 POP JUMP INVALID LOG2 PUSH5 0x6970667358 0x22 SLT KECCAK256 0xE7 RETURN 0xA7 0x23 SWAP15 0x22 RETURNDATACOPY CALLCODE DUP14 0xCA 0x4E SWAP3 0x2A PUSH19 0x2CF01EC0CD95DFC7D2AF8DCB1FFB51FB43B464 PUSH20 0x6F6C634300080700330000000000000000000000 "
				},
				"gasEstimates": {
					"creation": {
						"codeDepositCost": "232200",
						"executionCost": "infinite",
						"totalCost": "infinite"
					},
					"external": {
						"checkUpkeep(bytes)": "infinite",
						"counter()": "2451",
						"interval()": "infinite",
						"lastTimeStamp()": "2407",
						"performUpkeep(bytes)": "infinite"
					}
				},
				"methodIdentifiers": {
					"checkUpkeep(bytes)": "6e04ff0d",
					"counter()": "61bc221a",
					"interval()": "947a36fb",
					"lastTimeStamp()": "3f3b3b27",
					"performUpkeep(bytes)": "4585e33b"
				}
			},
			"storageLayout": {
				"storage": [
					{
						"astId": 66,
						"contract": "docs.chain.link/samples/Keepers/KeepersCounter.sol:Counter",
						"label": "counter",
						"offset": 0,
						"slot": "0",
						"type": "t_uint256"
					},
					{
						"astId": 71,
						"contract": "docs.chain.link/samples/Keepers/KeepersCounter.sol:Counter",
						"label": "lastTimeStamp",
						"offset": 0,
						"slot": "1",
						"type": "t_uint256"
					}
				],
				"types": {
					"t_uint256": {
						"encoding": "inplace",
						"label": "uint256",
						"numberOfBytes": "32"
					}
				}
			},
			"userdoc": {
				"kind": "user",
				"methods": {
					"counter()": {
						"notice": "Public counter variable"
					},
					"interval()": {
						"notice": "Use an interval in seconds and a timestamp to slow execution of Upkeep"
					}
				},
				"notice": "THIS IS AN EXAMPLE CONTRACT THAT USES HARDCODED VALUES FOR CLARITY. THIS IS AN EXAMPLE CONTRACT THAT USES UN-AUDITED CODE. DO NOT USE THIS CODE IN PRODUCTION.",
				"version": 1
			}
		}
	}
}